{
    "contractName": "AnyoneAirdrop",
    "abi": [
        {
            "inputs": [],
            "stateMutability": "nonpayable",
            "type": "constructor"
        },
        {
            "inputs": [
                {
                    "internalType": "address",
                    "name": "owner",
                    "type": "address"
                }
            ],
            "name": "OwnableInvalidOwner",
            "type": "error"
        },
        {
            "inputs": [
                {
                    "internalType": "address",
                    "name": "account",
                    "type": "address"
                }
            ],
            "name": "OwnableUnauthorizedAccount",
            "type": "error"
        },
        {
            "inputs": [],
            "name": "ReentrancyGuardReentrantCall",
            "type": "error"
        },
        {
            "anonymous": false,
            "inputs": [
                {
                    "indexed": true,
                    "internalType": "address",
                    "name": "previousOwner",
                    "type": "address"
                },
                {
                    "indexed": true,
                    "internalType": "address",
                    "name": "newOwner",
                    "type": "address"
                }
            ],
            "name": "OwnershipTransferred",
            "type": "event"
        },
        {
            "inputs": [
                {
                    "internalType": "contract IERC1155",
                    "name": "token",
                    "type": "address"
                },
                {
                    "internalType": "address[]",
                    "name": "recipients",
                    "type": "address[]"
                },
                {
                    "internalType": "uint256",
                    "name": "id",
                    "type": "uint256"
                },
                {
                    "internalType": "uint256[]",
                    "name": "amounts",
                    "type": "uint256[]"
                },
                {
                    "internalType": "bytes",
                    "name": "data",
                    "type": "bytes"
                }
            ],
            "name": "airdropERC1155",
            "outputs": [],
            "stateMutability": "nonpayable",
            "type": "function"
        },
        {
            "inputs": [
                {
                    "internalType": "contract IERC20",
                    "name": "token",
                    "type": "address"
                },
                {
                    "internalType": "address[]",
                    "name": "recipients",
                    "type": "address[]"
                },
                {
                    "internalType": "uint256[]",
                    "name": "amounts",
                    "type": "uint256[]"
                }
            ],
            "name": "airdropERC20",
            "outputs": [],
            "stateMutability": "nonpayable",
            "type": "function"
        },
        {
            "inputs": [
                {
                    "internalType": "contract IERC721",
                    "name": "token",
                    "type": "address"
                },
                {
                    "internalType": "address[]",
                    "name": "recipients",
                    "type": "address[]"
                },
                {
                    "internalType": "uint256[]",
                    "name": "tokenIds",
                    "type": "uint256[]"
                }
            ],
            "name": "airdropERC721",
            "outputs": [],
            "stateMutability": "nonpayable",
            "type": "function"
        },
        {
            "inputs": [],
            "name": "owner",
            "outputs": [
                {
                    "internalType": "address",
                    "name": "",
                    "type": "address"
                }
            ],
            "stateMutability": "view",
            "type": "function"
        },
        {
            "inputs": [],
            "name": "renounceOwnership",
            "outputs": [],
            "stateMutability": "nonpayable",
            "type": "function"
        },
        {
            "inputs": [
                {
                    "internalType": "address",
                    "name": "newOwner",
                    "type": "address"
                }
            ],
            "name": "transferOwnership",
            "outputs": [],
            "stateMutability": "nonpayable",
            "type": "function"
        }
    ],
    "bytecode": "6080806040523460755733156062575f8054336001600160a01b0319821681178355916001600160a01b03909116907f8be0079c531659141344cd1fd0a4f28419497f9722a3daafe3b4186f6b6457e09080a360018055610772908161007a8239f35b631e4fbdf760e01b5f525f60045260245ffd5b5f80fdfe6080806040526004361015610012575f80fd5b5f3560e01c9081631d5659fb146104cd57508063715018a6146104765780638da5cb5b1461044f5780639310fa3f146102d0578063f2fde38b146102475763feecb6bc1461005e575f80fd5b346101bd5760603660031901126101bd576004356001600160a01b038116908190036101bd5760243567ffffffffffffffff81116101bd576100a490369060040161061c565b909160443567ffffffffffffffff81116101bd576100c690369060040161061c565b916100cf610716565b6100da8385146106bb565b604051636eb1769f60e11b8152336004820152306024820152602081604481855afa80156101c95784915f91610212575b50106101d4575f5b84811061011c57005b610174602061013461012f84898b61064d565b610671565b61013f84888861064d565b6040516323b872dd60e01b81523360048201526001600160a01b03909216602483015235604482015291829081906064820190565b03815f875af180156101c95761018e575b50600101610113565b6020813d82116101c1575b816101a660209383610685565b810103126101bd5751801515036101bd575f610185565b5f80fd5b3d9150610199565b6040513d5f823e3d90fd5b60405162461bcd60e51b8152602060048201526016602482015275496e73756666696369656e7420616c6c6f77616e636560501b6044820152606490fd5b9150506020813d60201161023f575b8161022e60209383610685565b810103126101bd578390515f61010b565b3d9150610221565b346101bd5760203660031901126101bd576004356001600160a01b038116908190036101bd57610275610716565b80156102bd575f80546001600160a01b03198116831782556001600160a01b0316907f8be0079c531659141344cd1fd0a4f28419497f9722a3daafe3b4186f6b6457e09080a3005b631e4fbdf760e01b5f525f60045260245ffd5b346101bd5760a03660031901126101bd576004356001600160a01b038116908190036101bd5760243567ffffffffffffffff81116101bd5761031690369060040161061c565b906044359060643567ffffffffffffffff81116101bd5761033b90369060040161061c565b9490926084359567ffffffffffffffff87116101bd57366023880112156101bd5786600401359367ffffffffffffffff85116101bd57602488019760248636920101116101bd5761038d969196610716565b6103988783146106bb565b601f8501601f1916915f5b8181106103ac57005b6103ba61012f82848661064d565b906103c6818b8b61064d565b35873b156101bd57604051637921219560e11b81523360048201526001600160a01b03909316602484015260448301879052606483015260a0608483015260a48201889052878b60c48401375f60c489840101525f8260c481888101030181838b5af19182156101c95760019261043f575b50016103a3565b5f61044991610685565b8b610438565b346101bd575f3660031901126101bd575f546040516001600160a01b039091168152602090f35b346101bd575f3660031901126101bd5761048e610716565b5f80546001600160a01b0319811682556001600160a01b03167f8be0079c531659141344cd1fd0a4f28419497f9722a3daafe3b4186f6b6457e08280a3005b346101bd5760603660031901126101bd576004356001600160a01b03811691908290036101bd5760243567ffffffffffffffff81116101bd5761051490369060040161061c565b919060443567ffffffffffffffff81116101bd5761053690369060040161061c565b9390928482036105ca57505f5b81811061054c57005b61055a61012f82848661064d565b9061056681878761064d565b3591873b156101bd57604051632142170760e11b81523360048201526001600160a01b0391909116602482015260448101929092525f82606481838b5af19182156101c9576001926105ba575b5001610543565b5f6105c491610685565b876105b3565b62461bcd60e51b815260206004820152602760248201527f526563697069656e747320616e6420746f6b656e496473206c656e677468206d6044820152660d2e6dac2e8c6d60cb1b6064820152608490fd5b9181601f840112156101bd5782359167ffffffffffffffff83116101bd576020808501948460051b0101116101bd57565b919081101561065d5760051b0190565b634e487b7160e01b5f52603260045260245ffd5b356001600160a01b03811681036101bd5790565b90601f8019910116810190811067ffffffffffffffff8211176106a757604052565b634e487b7160e01b5f52604160045260245ffd5b156106c257565b60405162461bcd60e51b815260206004820152602660248201527f526563697069656e747320616e6420616d6f756e7473206c656e677468206d696044820152650e6dac2e8c6d60d31b6064820152608490fd5b5f546001600160a01b0316330361072957565b63118cdaa760e01b5f523360045260245ffdfea26469706673582212200a04492264b5dffb2759b39eee31356c99dcd9f0c4b28d31a088e984f97136ec64736f6c634300081c0033",
    "sourcePath": "/Users/lps/Repositories/bemind/bmt-contracts/contracts/AnyoneAirdrop.sol",
    "compiler": {
        "name": "solc",
        "version": "0.8.28+commit.7893614a"
    },
    "functionHashes": {
        "airdropERC1155(address,address[],uint256,uint256[],bytes)": "9310fa3f",
        "airdropERC20(address,address[],uint256[])": "feecb6bc",
        "airdropERC721(address,address[],uint256[])": "1d5659fb",
        "owner()": "8da5cb5b",
        "renounceOwnership()": "715018a6",
        "transferOwnership(address)": "f2fde38b"
    },
    "gasEstimates": {
        "creation": {
            "codeDepositCost": "381200",
            "executionCost": "48328",
            "totalCost": "429528"
        },
        "external": {
            "airdropERC1155(address,address[],uint256,uint256[],bytes)": "infinite",
            "airdropERC20(address,address[],uint256[])": "infinite",
            "airdropERC721(address,address[],uint256[])": "infinite",
            "owner()": "2323",
            "renounceOwnership()": "28072",
            "transferOwnership(address)": "28219"
        }
    }
}