{
  "address": "0xD1A04A4E34118c69f8D5D8e1Cc5E9FF5ae52F61A",
  "abi": [
    {
      "inputs": [
        {
          "internalType": "address",
          "name": "_paymentToken",
          "type": "address"
        },
        {
          "internalType": "address payable",
          "name": "_paymentAddress",
          "type": "address"
        },
        {
          "internalType": "uint256",
          "name": "_ticketPrice",
          "type": "uint256"
        }
      ],
      "stateMutability": "nonpayable",
      "type": "constructor"
    },
    {
      "inputs": [],
      "name": "AccessControlBadConfirmation",
      "type": "error"
    },
    {
      "inputs": [
        {
          "internalType": "address",
          "name": "account",
          "type": "address"
        },
        {
          "internalType": "bytes32",
          "name": "neededRole",
          "type": "bytes32"
        }
      ],
      "name": "AccessControlUnauthorizedAccount",
      "type": "error"
    },
    {
      "inputs": [],
      "name": "ReentrancyGuardReentrantCall",
      "type": "error"
    },
    {
      "anonymous": false,
      "inputs": [
        {
          "indexed": true,
          "internalType": "uint256",
          "name": "round",
          "type": "uint256"
        },
        {
          "indexed": true,
          "internalType": "address",
          "name": "user",
          "type": "address"
        },
        {
          "indexed": false,
          "internalType": "uint32",
          "name": "number",
          "type": "uint32"
        }
      ],
      "name": "NewEntry",
      "type": "event"
    },
    {
      "anonymous": false,
      "inputs": [
        {
          "indexed": true,
          "internalType": "uint256",
          "name": "round",
          "type": "uint256"
        },
        {
          "indexed": true,
          "internalType": "address",
          "name": "user",
          "type": "address"
        },
        {
          "indexed": false,
          "internalType": "uint256",
          "name": "amount",
          "type": "uint256"
        }
      ],
      "name": "RefundIssued",
      "type": "event"
    },
    {
      "anonymous": false,
      "inputs": [
        {
          "indexed": true,
          "internalType": "bytes32",
          "name": "role",
          "type": "bytes32"
        },
        {
          "indexed": true,
          "internalType": "bytes32",
          "name": "previousAdminRole",
          "type": "bytes32"
        },
        {
          "indexed": true,
          "internalType": "bytes32",
          "name": "newAdminRole",
          "type": "bytes32"
        }
      ],
      "name": "RoleAdminChanged",
      "type": "event"
    },
    {
      "anonymous": false,
      "inputs": [
        {
          "indexed": true,
          "internalType": "bytes32",
          "name": "role",
          "type": "bytes32"
        },
        {
          "indexed": true,
          "internalType": "address",
          "name": "account",
          "type": "address"
        },
        {
          "indexed": true,
          "internalType": "address",
          "name": "sender",
          "type": "address"
        }
      ],
      "name": "RoleGranted",
      "type": "event"
    },
    {
      "anonymous": false,
      "inputs": [
        {
          "indexed": true,
          "internalType": "bytes32",
          "name": "role",
          "type": "bytes32"
        },
        {
          "indexed": true,
          "internalType": "address",
          "name": "account",
          "type": "address"
        },
        {
          "indexed": true,
          "internalType": "address",
          "name": "sender",
          "type": "address"
        }
      ],
      "name": "RoleRevoked",
      "type": "event"
    },
    {
      "anonymous": false,
      "inputs": [
        {
          "indexed": true,
          "internalType": "uint256",
          "name": "round",
          "type": "uint256"
        },
        {
          "indexed": false,
          "internalType": "uint32",
          "name": "winningNumber",
          "type": "uint32"
        },
        {
          "indexed": false,
          "internalType": "address",
          "name": "winner",
          "type": "address"
        }
      ],
      "name": "RoundClosed",
      "type": "event"
    },
    {
      "inputs": [],
      "name": "ADMIN_ROLE",
      "outputs": [
        {
          "internalType": "bytes32",
          "name": "",
          "type": "bytes32"
        }
      ],
      "stateMutability": "view",
      "type": "function"
    },
    {
      "inputs": [],
      "name": "DEFAULT_ADMIN_ROLE",
      "outputs": [
        {
          "internalType": "bytes32",
          "name": "",
          "type": "bytes32"
        }
      ],
      "stateMutability": "view",
      "type": "function"
    },
    {
      "inputs": [],
      "name": "closeRound",
      "outputs": [],
      "stateMutability": "nonpayable",
      "type": "function"
    },
    {
      "inputs": [],
      "name": "currentRoundId",
      "outputs": [
        {
          "internalType": "uint256",
          "name": "",
          "type": "uint256"
        }
      ],
      "stateMutability": "view",
      "type": "function"
    },
    {
      "inputs": [
        {
          "internalType": "uint32",
          "name": "number",
          "type": "uint32"
        }
      ],
      "name": "enter",
      "outputs": [],
      "stateMutability": "nonpayable",
      "type": "function"
    },
    {
      "inputs": [
        {
          "internalType": "uint256",
          "name": "",
          "type": "uint256"
        }
      ],
      "name": "entries",
      "outputs": [
        {
          "internalType": "address",
          "name": "participant",
          "type": "address"
        },
        {
          "internalType": "uint32",
          "name": "number",
          "type": "uint32"
        }
      ],
      "stateMutability": "view",
      "type": "function"
    },
    {
      "inputs": [
        {
          "internalType": "uint256",
          "name": "index",
          "type": "uint256"
        }
      ],
      "name": "getEntry",
      "outputs": [
        {
          "internalType": "address",
          "name": "participant",
          "type": "address"
        },
        {
          "internalType": "uint32",
          "name": "number",
          "type": "uint32"
        }
      ],
      "stateMutability": "view",
      "type": "function"
    },
    {
      "inputs": [
        {
          "internalType": "uint256",
          "name": "roundId",
          "type": "uint256"
        }
      ],
      "name": "getParticipants",
      "outputs": [
        {
          "internalType": "address[]",
          "name": "",
          "type": "address[]"
        }
      ],
      "stateMutability": "view",
      "type": "function"
    },
    {
      "inputs": [
        {
          "internalType": "bytes32",
          "name": "role",
          "type": "bytes32"
        }
      ],
      "name": "getRoleAdmin",
      "outputs": [
        {
          "internalType": "bytes32",
          "name": "",
          "type": "bytes32"
        }
      ],
      "stateMutability": "view",
      "type": "function"
    },
    {
      "inputs": [
        {
          "internalType": "uint256",
          "name": "roundId",
          "type": "uint256"
        },
        {
          "internalType": "uint256",
          "name": "index",
          "type": "uint256"
        }
      ],
      "name": "getRoundNumberByIndex",
      "outputs": [
        {
          "internalType": "uint256",
          "name": "",
          "type": "uint256"
        }
      ],
      "stateMutability": "view",
      "type": "function"
    },
    {
      "inputs": [
        {
          "internalType": "uint256",
          "name": "roundId",
          "type": "uint256"
        }
      ],
      "name": "getRoundNumbers",
      "outputs": [
        {
          "internalType": "uint32[]",
          "name": "",
          "type": "uint32[]"
        }
      ],
      "stateMutability": "view",
      "type": "function"
    },
    {
      "inputs": [
        {
          "internalType": "bytes32",
          "name": "role",
          "type": "bytes32"
        },
        {
          "internalType": "address",
          "name": "account",
          "type": "address"
        }
      ],
      "name": "grantRole",
      "outputs": [],
      "stateMutability": "nonpayable",
      "type": "function"
    },
    {
      "inputs": [
        {
          "internalType": "bytes32",
          "name": "role",
          "type": "bytes32"
        },
        {
          "internalType": "address",
          "name": "account",
          "type": "address"
        }
      ],
      "name": "hasRole",
      "outputs": [
        {
          "internalType": "bool",
          "name": "",
          "type": "bool"
        }
      ],
      "stateMutability": "view",
      "type": "function"
    },
    {
      "inputs": [],
      "name": "maxNumber",
      "outputs": [
        {
          "internalType": "uint32",
          "name": "",
          "type": "uint32"
        }
      ],
      "stateMutability": "view",
      "type": "function"
    },
    {
      "inputs": [],
      "name": "maxNumbersPerRound",
      "outputs": [
        {
          "internalType": "uint32",
          "name": "",
          "type": "uint32"
        }
      ],
      "stateMutability": "view",
      "type": "function"
    },
    {
      "inputs": [],
      "name": "paymentAddress",
      "outputs": [
        {
          "internalType": "address payable",
          "name": "",
          "type": "address"
        }
      ],
      "stateMutability": "view",
      "type": "function"
    },
    {
      "inputs": [],
      "name": "paymentToken",
      "outputs": [
        {
          "internalType": "address",
          "name": "",
          "type": "address"
        }
      ],
      "stateMutability": "view",
      "type": "function"
    },
    {
      "inputs": [
        {
          "internalType": "uint256",
          "name": "roundId",
          "type": "uint256"
        }
      ],
      "name": "refundAll",
      "outputs": [],
      "stateMutability": "nonpayable",
      "type": "function"
    },
    {
      "inputs": [
        {
          "internalType": "bytes32",
          "name": "role",
          "type": "bytes32"
        },
        {
          "internalType": "address",
          "name": "callerConfirmation",
          "type": "address"
        }
      ],
      "name": "renounceRole",
      "outputs": [],
      "stateMutability": "nonpayable",
      "type": "function"
    },
    {
      "inputs": [
        {
          "internalType": "bytes32",
          "name": "role",
          "type": "bytes32"
        },
        {
          "internalType": "address",
          "name": "account",
          "type": "address"
        }
      ],
      "name": "revokeRole",
      "outputs": [],
      "stateMutability": "nonpayable",
      "type": "function"
    },
    {
      "inputs": [
        {
          "internalType": "uint256",
          "name": "",
          "type": "uint256"
        }
      ],
      "name": "rounds",
      "outputs": [
        {
          "internalType": "uint256",
          "name": "id",
          "type": "uint256"
        },
        {
          "internalType": "bool",
          "name": "isClosed",
          "type": "bool"
        },
        {
          "internalType": "uint32",
          "name": "winningNumber",
          "type": "uint32"
        },
        {
          "internalType": "bool",
          "name": "hasWinner",
          "type": "bool"
        }
      ],
      "stateMutability": "view",
      "type": "function"
    },
    {
      "inputs": [
        {
          "internalType": "uint32",
          "name": "_maxNumber",
          "type": "uint32"
        }
      ],
      "name": "setMaxNumber",
      "outputs": [],
      "stateMutability": "nonpayable",
      "type": "function"
    },
    {
      "inputs": [
        {
          "internalType": "uint8",
          "name": "_maxNumbersPerRound",
          "type": "uint8"
        }
      ],
      "name": "setMaxNumbersPerRound",
      "outputs": [],
      "stateMutability": "nonpayable",
      "type": "function"
    },
    {
      "inputs": [
        {
          "internalType": "address payable",
          "name": "_paymentAddress",
          "type": "address"
        }
      ],
      "name": "setPaymentAddress",
      "outputs": [],
      "stateMutability": "nonpayable",
      "type": "function"
    },
    {
      "inputs": [
        {
          "internalType": "address",
          "name": "_paymentToken",
          "type": "address"
        }
      ],
      "name": "setPaymentToken",
      "outputs": [],
      "stateMutability": "nonpayable",
      "type": "function"
    },
    {
      "inputs": [
        {
          "internalType": "uint256",
          "name": "_ticketPrice",
          "type": "uint256"
        }
      ],
      "name": "setTicketPrice",
      "outputs": [],
      "stateMutability": "nonpayable",
      "type": "function"
    },
    {
      "inputs": [
        {
          "internalType": "uint32",
          "name": "winningNumber",
          "type": "uint32"
        }
      ],
      "name": "setWinningNumber",
      "outputs": [],
      "stateMutability": "nonpayable",
      "type": "function"
    },
    {
      "inputs": [
        {
          "internalType": "bytes4",
          "name": "interfaceId",
          "type": "bytes4"
        }
      ],
      "name": "supportsInterface",
      "outputs": [
        {
          "internalType": "bool",
          "name": "",
          "type": "bool"
        }
      ],
      "stateMutability": "view",
      "type": "function"
    },
    {
      "inputs": [],
      "name": "ticketPrice",
      "outputs": [
        {
          "internalType": "uint256",
          "name": "",
          "type": "uint256"
        }
      ],
      "stateMutability": "view",
      "type": "function"
    },
    {
      "inputs": [
        {
          "internalType": "address",
          "name": "newAdmin",
          "type": "address"
        }
      ],
      "name": "updateAdmin",
      "outputs": [],
      "stateMutability": "nonpayable",
      "type": "function"
    },
    {
      "inputs": [
        {
          "internalType": "address",
          "name": "tokenAddress",
          "type": "address"
        }
      ],
      "name": "withdraw",
      "outputs": [],
      "stateMutability": "nonpayable",
      "type": "function"
    }
  ],
  "transactionHash": "0x3be98e459e946666184f86952bb53e206ca43289e82062f30f0732f8102c2276",
  "args": [
    "0xc92317E37Fd88CD2fCf14Efa4E715E93e10e2CF5",
    "0x2aBf33658053eF646aeA29F067783Ab1a9Cf5025",
    "1000000000000000000"
  ],
  "numDeployments": 1,
  "solcInputHash": "24729436439fc5ac78d312ffc1d467aa",
  "bytecode": "0x60806040526063600460146101000a81548163ffffffff021916908363ffffffff1602179055506064600460186101000a81548163ffffffff021916908363ffffffff16021790555034801561005457600080fd5b506040516130b73803806130b7833981810160405281019061007691906103a1565b600180819055506100906000801b3361015b60201b60201c565b506100c17fa49807205ce4d355092ef5a8a18f56e8913cf4a201fbe287825b095693c217753361015b60201b60201c565b5082600360006101000a81548173ffffffffffffffffffffffffffffffffffffffff021916908373ffffffffffffffffffffffffffffffffffffffff16021790555081600460006101000a81548173ffffffffffffffffffffffffffffffffffffffff021916908373ffffffffffffffffffffffffffffffffffffffff1602179055508060028190555060016005819055505050506103f4565b600061016d838361025860201b60201c565b61024d57600160008085815260200190815260200160002060000160008473ffffffffffffffffffffffffffffffffffffffff1673ffffffffffffffffffffffffffffffffffffffff16815260200190815260200160002060006101000a81548160ff0219169083151502179055506101ea6102c260201b60201c565b73ffffffffffffffffffffffffffffffffffffffff168273ffffffffffffffffffffffffffffffffffffffff16847f2f8788117e7eff1d82e926ec794901d17c78024a50270940304540a733656f0d60405160405180910390a460019050610252565b600090505b92915050565b600080600084815260200190815260200160002060000160008373ffffffffffffffffffffffffffffffffffffffff1673ffffffffffffffffffffffffffffffffffffffff16815260200190815260200160002060009054906101000a900460ff16905092915050565b600033905090565b600080fd5b600073ffffffffffffffffffffffffffffffffffffffff82169050919050565b60006102fa826102cf565b9050919050565b61030a816102ef565b811461031557600080fd5b50565b60008151905061032781610301565b92915050565b6000610338826102cf565b9050919050565b6103488161032d565b811461035357600080fd5b50565b6000815190506103658161033f565b92915050565b6000819050919050565b61037e8161036b565b811461038957600080fd5b50565b60008151905061039b81610375565b92915050565b6000806000606084860312156103ba576103b96102ca565b5b60006103c886828701610318565b93505060206103d986828701610356565b92505060406103ea8682870161038c565b9150509250925092565b612cb4806104036000396000f3fe608060405234801561001057600080fd5b50600436106101e55760003560e01c806375b238fc1161010f578063b30906d4116100a2578063d82169db11610071578063d82169db146105a7578063e278fe6f146105c3578063e2f273bd146105cd578063e9fee16f146105e9576101e5565b8063b30906d4146104f9578063bae78d7b1461052a578063c1e3bd3e1461055b578063d547741f1461058b576101e5565b80639c822575116100de5780639c822575146104715780639cbe5efd146104a1578063a217fddf146104bf578063a81e3272146104dd576101e5565b806375b238fc146103d25780638c65c81f146103f057806391d1485414610423578063992ff43614610453576101e5565b806336568abe116101875780635b0a8bf4116101565780635b0a8bf4146103605780635e1e10041461037c578063633423be146103985780636a326ab1146103b6576101e5565b806336568abe146102ee5780633a4f69991461030a5780634db5b8561461032857806351cff8d914610344576101e5565b806315981650116101c35780631598165014610268578063248a9ca3146102845780632f2ff15d146102b45780633013ce29146102d0576101e5565b806301ffc9a7146101ea57806309432a9d1461021a5780631209b1f61461024a575b600080fd5b61020460048036038101906101ff919061201a565b610605565b6040516102119190612062565b60405180910390f35b610234600480360381019061022f91906120b3565b61067f565b6040516102419190612102565b60405180910390f35b6102526106dd565b60405161025f9190612102565b60405180910390f35b610282600480360381019061027d919061211d565b6106e3565b005b61029e60048036038101906102999190612180565b610756565b6040516102ab91906121bc565b60405180910390f35b6102ce60048036038101906102c99190612235565b610775565b005b6102d8610797565b6040516102e59190612284565b60405180910390f35b61030860048036038101906103039190612235565b6107bd565b005b610312610838565b60405161031f91906122be565b60405180910390f35b610342600480360381019061033d9190612305565b61084e565b005b61035e60048036038101906103599190612332565b6108db565b005b61037a60048036038101906103759190612305565b610a45565b005b6103966004803603810190610391919061239d565b610db6565b005b6103a0610e63565b6040516103ad91906123d9565b60405180910390f35b6103d060048036038101906103cb9190612332565b610e89565b005b6103da610f36565b6040516103e791906121bc565b60405180910390f35b61040a6004803603810190610405919061211d565b610f5a565b60405161041a94939291906123f4565b60405180910390f35b61043d60048036038101906104389190612235565b610fb4565b60405161044a9190612062565b60405180910390f35b61045b61101e565b60405161046891906122be565b60405180910390f35b61048b6004803603810190610486919061211d565b611034565b60405161049891906124f7565b60405180910390f35b6104a96110ce565b6040516104b69190612102565b60405180910390f35b6104c76110d4565b6040516104d491906121bc565b60405180910390f35b6104f760048036038101906104f29190612305565b6110db565b005b610513600480360381019061050e919061211d565b6115e0565b604051610521929190612519565b60405180910390f35b610544600480360381019061053f919061211d565b611640565b604051610552929190612519565b60405180910390f35b6105756004803603810190610570919061211d565b6116f0565b6040516105829190612600565b60405180910390f35b6105a560048036038101906105a09190612235565b611791565b005b6105c160048036038101906105bc919061265b565b6117b3565b005b6105cb611843565b005b6105e760048036038101906105e29190612332565b611947565b005b61060360048036038101906105fe919061211d565b611a07565b005b60007f7965db0b000000000000000000000000000000000000000000000000000000007bffffffffffffffffffffffffffffffffffffffffffffffffffffffff1916827bffffffffffffffffffffffffffffffffffffffffffffffffffffffff19161480610678575061067782611cb4565b5b9050919050565b60006007600084815260200190815260200160002060020182815481106106a9576106a8612688565b5b90600052602060002090600891828204019190066004029054906101000a900463ffffffff1663ffffffff16905092915050565b60025481565b61070d7fa49807205ce4d355092ef5a8a18f56e8913cf4a201fbe287825b095693c2177533610fb4565b61074c576040517f08c379a00000000000000000000000000000000000000000000000000000000081526004016107439061273a565b60405180910390fd5b8060028190555050565b6000806000838152602001908152602001600020600101549050919050565b61077e82610756565b61078781611d1e565b6107918383611d32565b50505050565b600360009054906101000a900473ffffffffffffffffffffffffffffffffffffffff1681565b6107c5611e23565b73ffffffffffffffffffffffffffffffffffffffff168173ffffffffffffffffffffffffffffffffffffffff1614610829576040517f6697b23200000000000000000000000000000000000000000000000000000000815260040160405180910390fd5b6108338282611e2b565b505050565b600460149054906101000a900463ffffffff1681565b6108787fa49807205ce4d355092ef5a8a18f56e8913cf4a201fbe287825b095693c2177533610fb4565b6108b7576040517f08c379a00000000000000000000000000000000000000000000000000000000081526004016108ae9061273a565b60405180910390fd5b80600460146101000a81548163ffffffff021916908363ffffffff16021790555050565b6109057fa49807205ce4d355092ef5a8a18f56e8913cf4a201fbe287825b095693c2177533610fb4565b610944576040517f08c379a000000000000000000000000000000000000000000000000000000000815260040161093b9061273a565b60405180910390fd5b60008173ffffffffffffffffffffffffffffffffffffffff166370a08231306040518263ffffffff1660e01b815260040161097f9190612284565b602060405180830381865afa15801561099c573d6000803e3d6000fd5b505050506040513d601f19601f820116820180604052508101906109c0919061276f565b90508173ffffffffffffffffffffffffffffffffffffffff1663a9059cbb33836040518363ffffffff1660e01b81526004016109fd92919061279c565b6020604051808303816000875af1158015610a1c573d6000803e3d6000fd5b505050506040513d601f19601f82011682018060405250810190610a4091906127f1565b505050565b610a6f7fa49807205ce4d355092ef5a8a18f56e8913cf4a201fbe287825b095693c2177533610fb4565b610aae576040517f08c379a0000000000000000000000000000000000000000000000000000000008152600401610aa59061273a565b60405180910390fd5b600460149054906101000a900463ffffffff1663ffffffff168163ffffffff161115610b0f576040517f08c379a0000000000000000000000000000000000000000000000000000000008152600401610b069061286a565b60405180910390fd5b60076000600554815260200190815260200160002060030160009054906101000a900460ff16610b74576040517f08c379a0000000000000000000000000000000000000000000000000000000008152600401610b6b906128d6565b60405180910390fd5b60006007600060055481526020019081526020016000209050818160030160016101000a81548163ffffffff021916908363ffffffff160217905550600073ffffffffffffffffffffffffffffffffffffffff168160010160008463ffffffff16815260200190815260200160002060009054906101000a900473ffffffffffffffffffffffffffffffffffffffff1673ffffffffffffffffffffffffffffffffffffffff1614158160030160056101000a81548160ff02191690831515021790555060008160010160008463ffffffff16815260200190815260200160002060009054906101000a900473ffffffffffffffffffffffffffffffffffffffff1690508160030160059054906101000a900460ff1615610d5d576000600460189054906101000a900463ffffffff1663ffffffff16600254610cb69190612925565b9050600360009054906101000a900473ffffffffffffffffffffffffffffffffffffffff1673ffffffffffffffffffffffffffffffffffffffff166323b872dd3384846040518463ffffffff1660e01b8152600401610d1793929190612967565b6020604051808303816000875af1158015610d36573d6000803e3d6000fd5b505050506040513d601f19601f82011682018060405250810190610d5a91906127f1565b50505b6005547f39edae8cf7c8946beb15c232789a9498e37501196a8273cce9b4e7de88ca97158483604051610d9192919061299e565b60405180910390a260056000815480929190610dac906129c7565b9190505550505050565b610de07fa49807205ce4d355092ef5a8a18f56e8913cf4a201fbe287825b095693c2177533610fb4565b610e1f576040517f08c379a0000000000000000000000000000000000000000000000000000000008152600401610e169061273a565b60405180910390fd5b80600460006101000a81548173ffffffffffffffffffffffffffffffffffffffff021916908373ffffffffffffffffffffffffffffffffffffffff16021790555050565b600460009054906101000a900473ffffffffffffffffffffffffffffffffffffffff1681565b610eb37fa49807205ce4d355092ef5a8a18f56e8913cf4a201fbe287825b095693c2177533610fb4565b610ef2576040517f08c379a0000000000000000000000000000000000000000000000000000000008152600401610ee99061273a565b60405180910390fd5b80600360006101000a81548173ffffffffffffffffffffffffffffffffffffffff021916908373ffffffffffffffffffffffffffffffffffffffff16021790555050565b7fa49807205ce4d355092ef5a8a18f56e8913cf4a201fbe287825b095693c2177581565b60076020528060005260406000206000915090508060000154908060030160009054906101000a900460ff16908060030160019054906101000a900463ffffffff16908060030160059054906101000a900460ff16905084565b600080600084815260200190815260200160002060000160008373ffffffffffffffffffffffffffffffffffffffff1673ffffffffffffffffffffffffffffffffffffffff16815260200190815260200160002060009054906101000a900460ff16905092915050565b600460189054906101000a900463ffffffff1681565b6060600760008381526020019081526020016000206002018054806020026020016040519081016040528092919081815260200182805480156110c257602002820191906000526020600020906000905b82829054906101000a900463ffffffff1663ffffffff16815260200190600401906020826003010492830192600103820291508084116110855790505b50505050509050919050565b60055481565b6000801b81565b6005546007600082815260200190815260200160002060030160009054906101000a900460ff1615611142576040517f08c379a000000000000000000000000000000000000000000000000000000000815260040161113990612a5b565b60405180910390fd5b61114a611f1d565b600460149054906101000a900463ffffffff1663ffffffff168263ffffffff1611156111ab576040517f08c379a00000000000000000000000000000000000000000000000000000000081526004016111a290612ac7565b60405180910390fd5b600073ffffffffffffffffffffffffffffffffffffffff1660076000600554815260200190815260200160002060010160008463ffffffff16815260200190815260200160002060009054906101000a900473ffffffffffffffffffffffffffffffffffffffff1673ffffffffffffffffffffffffffffffffffffffff1614611269576040517f08c379a000000000000000000000000000000000000000000000000000000000815260040161126090612b33565b60405180910390fd5b600360009054906101000a900473ffffffffffffffffffffffffffffffffffffffff1673ffffffffffffffffffffffffffffffffffffffff166323b872dd33600460009054906101000a900473ffffffffffffffffffffffffffffffffffffffff166002546040518463ffffffff1660e01b81526004016112ec93929190612bb2565b6020604051808303816000875af115801561130b573d6000803e3d6000fd5b505050506040513d601f19601f8201168201806040525081019061132f91906127f1565b503360076000600554815260200190815260200160002060010160008463ffffffff16815260200190815260200160002060006101000a81548173ffffffffffffffffffffffffffffffffffffffff021916908373ffffffffffffffffffffffffffffffffffffffff1602179055506007600060055481526020019081526020016000206002018290806001815401808255809150506001900390600052602060002090600891828204019190066004029091909190916101000a81548163ffffffff021916908363ffffffff160217905550600860006005548152602001908152602001600020339080600181540180825580915050600190039060005260206000200160009091909190916101000a81548173ffffffffffffffffffffffffffffffffffffffff021916908373ffffffffffffffffffffffffffffffffffffffff160217905550600660405180604001604052803373ffffffffffffffffffffffffffffffffffffffff1681526020018463ffffffff168152509080600181540180825580915050600190039060005260206000200160009091909190915060008201518160000160006101000a81548173ffffffffffffffffffffffffffffffffffffffff021916908373ffffffffffffffffffffffffffffffffffffffff16021790555060208201518160000160146101000a81548163ffffffff021916908363ffffffff16021790555050503373ffffffffffffffffffffffffffffffffffffffff166005547f2b9c236bac90506cd604ab8eacd081c02d90699e1e7e8fee1c8156f0ff3cb5a78460405161158991906122be565b60405180910390a3600460189054906101000a900463ffffffff1663ffffffff1660076000600554815260200190815260200160002060020180549050106115d4576115d3611843565b5b6115dc611f63565b5050565b600681815481106115f057600080fd5b906000526020600020016000915090508060000160009054906101000a900473ffffffffffffffffffffffffffffffffffffffff16908060000160149054906101000a900463ffffffff16905082565b600080600680549050831061168a576040517f08c379a000000000000000000000000000000000000000000000000000000000815260040161168190612c35565b60405180910390fd5b6000600684815481106116a05761169f612688565b5b9060005260206000200190508060000160009054906101000a900473ffffffffffffffffffffffffffffffffffffffff168160000160149054906101000a900463ffffffff169250925050915091565b60606008600083815260200190815260200160002080548060200260200160405190810160405280929190818152602001828054801561178557602002820191906000526020600020905b8160009054906101000a900473ffffffffffffffffffffffffffffffffffffffff1673ffffffffffffffffffffffffffffffffffffffff168152602001906001019080831161173b575b50505050509050919050565b61179a82610756565b6117a381611d1e565b6117ad8383611e2b565b50505050565b6117dd7fa49807205ce4d355092ef5a8a18f56e8913cf4a201fbe287825b095693c2177533610fb4565b61181c576040517f08c379a00000000000000000000000000000000000000000000000000000000081526004016118139061273a565b60405180910390fd5b8060ff16600460186101000a81548163ffffffff021916908363ffffffff16021790555050565b61186d7fa49807205ce4d355092ef5a8a18f56e8913cf4a201fbe287825b095693c2177533610fb4565b6118ac576040517f08c379a00000000000000000000000000000000000000000000000000000000081526004016118a39061273a565b60405180910390fd5b6005546007600082815260200190815260200160002060030160009054906101000a900460ff1615611913576040517f08c379a000000000000000000000000000000000000000000000000000000000815260040161190a90612a5b565b60405180910390fd5b600160076000600554815260200190815260200160002060030160006101000a81548160ff02191690831515021790555050565b6119717fa49807205ce4d355092ef5a8a18f56e8913cf4a201fbe287825b095693c2177533610fb4565b6119b0576040517f08c379a00000000000000000000000000000000000000000000000000000000081526004016119a79061273a565b60405180910390fd5b6119da7fa49807205ce4d355092ef5a8a18f56e8913cf4a201fbe287825b095693c2177582610775565b611a047fa49807205ce4d355092ef5a8a18f56e8913cf4a201fbe287825b095693c2177533611791565b50565b611a317fa49807205ce4d355092ef5a8a18f56e8913cf4a201fbe287825b095693c2177533610fb4565b611a70576040517f08c379a0000000000000000000000000000000000000000000000000000000008152600401611a679061273a565b60405180910390fd5b806007600082815260200190815260200160002060030160009054906101000a900460ff1615611ad5576040517f08c379a0000000000000000000000000000000000000000000000000000000008152600401611acc90612a5b565b60405180910390fd5b611add611f1d565b600060076000848152602001908152602001600020905060005b8160020180549050811015611c89576000826001016000846002018481548110611b2457611b23612688565b5b90600052602060002090600891828204019190066004029054906101000a900463ffffffff1663ffffffff16815260200190815260200160002060009054906101000a900473ffffffffffffffffffffffffffffffffffffffff16905060006002549050600360009054906101000a900473ffffffffffffffffffffffffffffffffffffffff1673ffffffffffffffffffffffffffffffffffffffff166323b872dd3384846040518463ffffffff1660e01b8152600401611be793929190612967565b6020604051808303816000875af1158015611c06573d6000803e3d6000fd5b505050506040513d601f19601f82011682018060405250810190611c2a91906127f1565b508173ffffffffffffffffffffffffffffffffffffffff16867f7a482fdeb6bc9a1376f597068a214a7a39472bb2eff1b8cad21ba04f49ddca1b83604051611c729190612102565b60405180910390a350508080600101915050611af7565b5060018160030160006101000a81548160ff02191690831515021790555050611cb0611f63565b5050565b60007f01ffc9a7000000000000000000000000000000000000000000000000000000007bffffffffffffffffffffffffffffffffffffffffffffffffffffffff1916827bffffffffffffffffffffffffffffffffffffffffffffffffffffffff1916149050919050565b611d2f81611d2a611e23565b611f6c565b50565b6000611d3e8383610fb4565b611e1857600160008085815260200190815260200160002060000160008473ffffffffffffffffffffffffffffffffffffffff1673ffffffffffffffffffffffffffffffffffffffff16815260200190815260200160002060006101000a81548160ff021916908315150217905550611db5611e23565b73ffffffffffffffffffffffffffffffffffffffff168273ffffffffffffffffffffffffffffffffffffffff16847f2f8788117e7eff1d82e926ec794901d17c78024a50270940304540a733656f0d60405160405180910390a460019050611e1d565b600090505b92915050565b600033905090565b6000611e378383610fb4565b15611f1257600080600085815260200190815260200160002060000160008473ffffffffffffffffffffffffffffffffffffffff1673ffffffffffffffffffffffffffffffffffffffff16815260200190815260200160002060006101000a81548160ff021916908315150217905550611eaf611e23565b73ffffffffffffffffffffffffffffffffffffffff168273ffffffffffffffffffffffffffffffffffffffff16847ff6391f5c32d9c69d2a47ea670b442974b53935d1edc7fd64eb21e047a839171b60405160405180910390a460019050611f17565b600090505b92915050565b600260015403611f59576040517f3ee5aeb500000000000000000000000000000000000000000000000000000000815260040160405180910390fd5b6002600181905550565b60018081905550565b611f768282610fb4565b611fb95780826040517fe2517d3f000000000000000000000000000000000000000000000000000000008152600401611fb0929190612c55565b60405180910390fd5b5050565b600080fd5b60007fffffffff0000000000000000000000000000000000000000000000000000000082169050919050565b611ff781611fc2565b811461200257600080fd5b50565b60008135905061201481611fee565b92915050565b6000602082840312156120305761202f611fbd565b5b600061203e84828501612005565b91505092915050565b60008115159050919050565b61205c81612047565b82525050565b60006020820190506120776000830184612053565b92915050565b6000819050919050565b6120908161207d565b811461209b57600080fd5b50565b6000813590506120ad81612087565b92915050565b600080604083850312156120ca576120c9611fbd565b5b60006120d88582860161209e565b92505060206120e98582860161209e565b9150509250929050565b6120fc8161207d565b82525050565b600060208201905061211760008301846120f3565b92915050565b60006020828403121561213357612132611fbd565b5b60006121418482850161209e565b91505092915050565b6000819050919050565b61215d8161214a565b811461216857600080fd5b50565b60008135905061217a81612154565b92915050565b60006020828403121561219657612195611fbd565b5b60006121a48482850161216b565b91505092915050565b6121b68161214a565b82525050565b60006020820190506121d160008301846121ad565b92915050565b600073ffffffffffffffffffffffffffffffffffffffff82169050919050565b6000612202826121d7565b9050919050565b612212816121f7565b811461221d57600080fd5b50565b60008135905061222f81612209565b92915050565b6000806040838503121561224c5761224b611fbd565b5b600061225a8582860161216b565b925050602061226b85828601612220565b9150509250929050565b61227e816121f7565b82525050565b60006020820190506122996000830184612275565b92915050565b600063ffffffff82169050919050565b6122b88161229f565b82525050565b60006020820190506122d360008301846122af565b92915050565b6122e28161229f565b81146122ed57600080fd5b50565b6000813590506122ff816122d9565b92915050565b60006020828403121561231b5761231a611fbd565b5b6000612329848285016122f0565b91505092915050565b60006020828403121561234857612347611fbd565b5b600061235684828501612220565b91505092915050565b600061236a826121d7565b9050919050565b61237a8161235f565b811461238557600080fd5b50565b60008135905061239781612371565b92915050565b6000602082840312156123b3576123b2611fbd565b5b60006123c184828501612388565b91505092915050565b6123d38161235f565b82525050565b60006020820190506123ee60008301846123ca565b92915050565b600060808201905061240960008301876120f3565b6124166020830186612053565b61242360408301856122af565b6124306060830184612053565b95945050505050565b600081519050919050565b600082825260208201905092915050565b6000819050602082019050919050565b61246e8161229f565b82525050565b60006124808383612465565b60208301905092915050565b6000602082019050919050565b60006124a482612439565b6124ae8185612444565b93506124b983612455565b8060005b838110156124ea5781516124d18882612474565b97506124dc8361248c565b9250506001810190506124bd565b5085935050505092915050565b600060208201905081810360008301526125118184612499565b905092915050565b600060408201905061252e6000830185612275565b61253b60208301846122af565b9392505050565b600081519050919050565b600082825260208201905092915050565b6000819050602082019050919050565b612577816121f7565b82525050565b6000612589838361256e565b60208301905092915050565b6000602082019050919050565b60006125ad82612542565b6125b7818561254d565b93506125c28361255e565b8060005b838110156125f35781516125da888261257d565b97506125e583612595565b9250506001810190506125c6565b5085935050505092915050565b6000602082019050818103600083015261261a81846125a2565b905092915050565b600060ff82169050919050565b61263881612622565b811461264357600080fd5b50565b6000813590506126558161262f565b92915050565b60006020828403121561267157612670611fbd565b5b600061267f84828501612646565b91505092915050565b7f4e487b7100000000000000000000000000000000000000000000000000000000600052603260045260246000fd5b600082825260208201905092915050565b7f4f6e6c792061646d696e2063616e20706572666f726d2074686973206163746960008201527f6f6e000000000000000000000000000000000000000000000000000000000000602082015250565b60006127246022836126b7565b915061272f826126c8565b604082019050919050565b6000602082019050818103600083015261275381612717565b9050919050565b60008151905061276981612087565b92915050565b60006020828403121561278557612784611fbd565b5b60006127938482850161275a565b91505092915050565b60006040820190506127b16000830185612275565b6127be60208301846120f3565b9392505050565b6127ce81612047565b81146127d957600080fd5b50565b6000815190506127eb816127c5565b92915050565b60006020828403121561280757612806611fbd565b5b6000612815848285016127dc565b91505092915050565b7f496e76616c69642077696e6e696e67206e756d62657200000000000000000000600082015250565b60006128546016836126b7565b915061285f8261281e565b602082019050919050565b6000602082019050818103600083015261288381612847565b9050919050565b7f526f756e64206973206e6f7420636c6f73656400000000000000000000000000600082015250565b60006128c06013836126b7565b91506128cb8261288a565b602082019050919050565b600060208201905081810360008301526128ef816128b3565b9050919050565b7f4e487b7100000000000000000000000000000000000000000000000000000000600052601160045260246000fd5b60006129308261207d565b915061293b8361207d565b92508282026129498161207d565b915082820484148315176129605761295f6128f6565b5b5092915050565b600060608201905061297c6000830186612275565b6129896020830185612275565b61299660408301846120f3565b949350505050565b60006040820190506129b360008301856122af565b6129c06020830184612275565b9392505050565b60006129d28261207d565b91507fffffffffffffffffffffffffffffffffffffffffffffffffffffffffffffffff8203612a0457612a036128f6565b5b600182019050919050565b7f526f756e6420697320636c6f7365640000000000000000000000000000000000600082015250565b6000612a45600f836126b7565b9150612a5082612a0f565b602082019050919050565b60006020820190508181036000830152612a7481612a38565b9050919050565b7f4e756d6265722065786365656473206d6178206c696d69740000000000000000600082015250565b6000612ab16018836126b7565b9150612abc82612a7b565b602082019050919050565b60006020820190508181036000830152612ae081612aa4565b9050919050565b7f4e756d62657220616c72656164792074616b656e000000000000000000000000600082015250565b6000612b1d6014836126b7565b9150612b2882612ae7565b602082019050919050565b60006020820190508181036000830152612b4c81612b10565b9050919050565b6000819050919050565b6000612b78612b73612b6e846121d7565b612b53565b6121d7565b9050919050565b6000612b8a82612b5d565b9050919050565b6000612b9c82612b7f565b9050919050565b612bac81612b91565b82525050565b6000606082019050612bc76000830186612275565b612bd46020830185612ba3565b612be160408301846120f3565b949350505050565b7f496e646578206f7574206f6620626f756e647300000000000000000000000000600082015250565b6000612c1f6013836126b7565b9150612c2a82612be9565b602082019050919050565b60006020820190508181036000830152612c4e81612c12565b9050919050565b6000604082019050612c6a6000830185612275565b612c7760208301846121ad565b939250505056fea264697066735822122081df6c4d1b05c1e892605aca18ec15c347c622a01ab67deee4c6c4032c78022a64736f6c634300081c0033",
  "devdoc": {
    "details": "This contract is used to create a lottery systemA contract for a lottery systemdefault numbers are 0-99 and max numbers per round are 100",
    "errors": {
      "AccessControlBadConfirmation()": [
        {
          "details": "The caller of a function is not the expected one. NOTE: Don't confuse with {AccessControlUnauthorizedAccount}."
        }
      ],
      "AccessControlUnauthorizedAccount(address,bytes32)": [
        {
          "details": "The `account` is missing a role."
        }
      ],
      "ReentrancyGuardReentrantCall()": [
        {
          "details": "Unauthorized reentrant call."
        }
      ]
    },
    "events": {
      "RoleAdminChanged(bytes32,bytes32,bytes32)": {
        "details": "Emitted when `newAdminRole` is set as ``role``'s admin role, replacing `previousAdminRole` `DEFAULT_ADMIN_ROLE` is the starting admin for all roles, despite {RoleAdminChanged} not being emitted signaling this."
      },
      "RoleGranted(bytes32,address,address)": {
        "details": "Emitted when `account` is granted `role`. `sender` is the account that originated the contract call. This account bears the admin role (for the granted role). Expected in cases where the role was granted using the internal {AccessControl-_grantRole}."
      },
      "RoleRevoked(bytes32,address,address)": {
        "details": "Emitted when `account` is revoked `role`. `sender` is the account that originated the contract call:   - if using `revokeRole`, it is the admin role bearer   - if using `renounceRole`, it is the role bearer (i.e. `account`)"
      }
    },
    "kind": "dev",
    "methods": {
      "getRoleAdmin(bytes32)": {
        "details": "Returns the admin role that controls `role`. See {grantRole} and {revokeRole}. To change a role's admin, use {_setRoleAdmin}."
      },
      "grantRole(bytes32,address)": {
        "details": "Grants `role` to `account`. If `account` had not been already granted `role`, emits a {RoleGranted} event. Requirements: - the caller must have ``role``'s admin role. May emit a {RoleGranted} event."
      },
      "hasRole(bytes32,address)": {
        "details": "Returns `true` if `account` has been granted `role`."
      },
      "renounceRole(bytes32,address)": {
        "details": "Revokes `role` from the calling account. Roles are often managed via {grantRole} and {revokeRole}: this function's purpose is to provide a mechanism for accounts to lose their privileges if they are compromised (such as when a trusted device is misplaced). If the calling account had been revoked `role`, emits a {RoleRevoked} event. Requirements: - the caller must be `callerConfirmation`. May emit a {RoleRevoked} event."
      },
      "revokeRole(bytes32,address)": {
        "details": "Revokes `role` from `account`. If `account` had been granted `role`, emits a {RoleRevoked} event. Requirements: - the caller must have ``role``'s admin role. May emit a {RoleRevoked} event."
      },
      "supportsInterface(bytes4)": {
        "details": "See {IERC165-supportsInterface}."
      }
    },
    "title": "LuckyLotDraw",
    "version": 1
  },
  "userdoc": {
    "kind": "user",
    "methods": {},
    "notice": "This contract is used to create a lottery system",
    "version": 1
  },
  "storageLayout": {
    "storage": [
      {
        "astId": 3929,
        "contract": "contracts/LuckyLotDraw.sol:LuckyLotDraw",
        "label": "_roles",
        "offset": 0,
        "slot": "0",
        "type": "t_mapping(t_bytes32,t_struct(RoleData)3924_storage)"
      },
      {
        "astId": 7379,
        "contract": "contracts/LuckyLotDraw.sol:LuckyLotDraw",
        "label": "_status",
        "offset": 0,
        "slot": "1",
        "type": "t_uint256"
      },
      {
        "astId": 12192,
        "contract": "contracts/LuckyLotDraw.sol:LuckyLotDraw",
        "label": "ticketPrice",
        "offset": 0,
        "slot": "2",
        "type": "t_uint256"
      },
      {
        "astId": 12194,
        "contract": "contracts/LuckyLotDraw.sol:LuckyLotDraw",
        "label": "paymentToken",
        "offset": 0,
        "slot": "3",
        "type": "t_address"
      },
      {
        "astId": 12196,
        "contract": "contracts/LuckyLotDraw.sol:LuckyLotDraw",
        "label": "paymentAddress",
        "offset": 0,
        "slot": "4",
        "type": "t_address_payable"
      },
      {
        "astId": 12199,
        "contract": "contracts/LuckyLotDraw.sol:LuckyLotDraw",
        "label": "maxNumber",
        "offset": 20,
        "slot": "4",
        "type": "t_uint32"
      },
      {
        "astId": 12202,
        "contract": "contracts/LuckyLotDraw.sol:LuckyLotDraw",
        "label": "maxNumbersPerRound",
        "offset": 24,
        "slot": "4",
        "type": "t_uint32"
      },
      {
        "astId": 12220,
        "contract": "contracts/LuckyLotDraw.sol:LuckyLotDraw",
        "label": "currentRoundId",
        "offset": 0,
        "slot": "5",
        "type": "t_uint256"
      },
      {
        "astId": 12229,
        "contract": "contracts/LuckyLotDraw.sol:LuckyLotDraw",
        "label": "entries",
        "offset": 0,
        "slot": "6",
        "type": "t_array(t_struct(Entry)12225_storage)dyn_storage"
      },
      {
        "astId": 12234,
        "contract": "contracts/LuckyLotDraw.sol:LuckyLotDraw",
        "label": "rounds",
        "offset": 0,
        "slot": "7",
        "type": "t_mapping(t_uint256,t_struct(Round)12218_storage)"
      },
      {
        "astId": 12239,
        "contract": "contracts/LuckyLotDraw.sol:LuckyLotDraw",
        "label": "roundParticipants",
        "offset": 0,
        "slot": "8",
        "type": "t_mapping(t_uint256,t_array(t_address)dyn_storage)"
      }
    ],
    "types": {
      "t_address": {
        "encoding": "inplace",
        "label": "address",
        "numberOfBytes": "20"
      },
      "t_address_payable": {
        "encoding": "inplace",
        "label": "address payable",
        "numberOfBytes": "20"
      },
      "t_array(t_address)dyn_storage": {
        "base": "t_address",
        "encoding": "dynamic_array",
        "label": "address[]",
        "numberOfBytes": "32"
      },
      "t_array(t_struct(Entry)12225_storage)dyn_storage": {
        "base": "t_struct(Entry)12225_storage",
        "encoding": "dynamic_array",
        "label": "struct LuckyLotDraw.Entry[]",
        "numberOfBytes": "32"
      },
      "t_array(t_uint32)dyn_storage": {
        "base": "t_uint32",
        "encoding": "dynamic_array",
        "label": "uint32[]",
        "numberOfBytes": "32"
      },
      "t_bool": {
        "encoding": "inplace",
        "label": "bool",
        "numberOfBytes": "1"
      },
      "t_bytes32": {
        "encoding": "inplace",
        "label": "bytes32",
        "numberOfBytes": "32"
      },
      "t_mapping(t_address,t_bool)": {
        "encoding": "mapping",
        "key": "t_address",
        "label": "mapping(address => bool)",
        "numberOfBytes": "32",
        "value": "t_bool"
      },
      "t_mapping(t_bytes32,t_struct(RoleData)3924_storage)": {
        "encoding": "mapping",
        "key": "t_bytes32",
        "label": "mapping(bytes32 => struct AccessControl.RoleData)",
        "numberOfBytes": "32",
        "value": "t_struct(RoleData)3924_storage"
      },
      "t_mapping(t_uint256,t_address)": {
        "encoding": "mapping",
        "key": "t_uint256",
        "label": "mapping(uint256 => address)",
        "numberOfBytes": "32",
        "value": "t_address"
      },
      "t_mapping(t_uint256,t_array(t_address)dyn_storage)": {
        "encoding": "mapping",
        "key": "t_uint256",
        "label": "mapping(uint256 => address[])",
        "numberOfBytes": "32",
        "value": "t_array(t_address)dyn_storage"
      },
      "t_mapping(t_uint256,t_struct(Round)12218_storage)": {
        "encoding": "mapping",
        "key": "t_uint256",
        "label": "mapping(uint256 => struct LuckyLotDraw.Round)",
        "numberOfBytes": "32",
        "value": "t_struct(Round)12218_storage"
      },
      "t_struct(Entry)12225_storage": {
        "encoding": "inplace",
        "label": "struct LuckyLotDraw.Entry",
        "members": [
          {
            "astId": 12222,
            "contract": "contracts/LuckyLotDraw.sol:LuckyLotDraw",
            "label": "participant",
            "offset": 0,
            "slot": "0",
            "type": "t_address"
          },
          {
            "astId": 12224,
            "contract": "contracts/LuckyLotDraw.sol:LuckyLotDraw",
            "label": "number",
            "offset": 20,
            "slot": "0",
            "type": "t_uint32"
          }
        ],
        "numberOfBytes": "32"
      },
      "t_struct(RoleData)3924_storage": {
        "encoding": "inplace",
        "label": "struct AccessControl.RoleData",
        "members": [
          {
            "astId": 3921,
            "contract": "contracts/LuckyLotDraw.sol:LuckyLotDraw",
            "label": "hasRole",
            "offset": 0,
            "slot": "0",
            "type": "t_mapping(t_address,t_bool)"
          },
          {
            "astId": 3923,
            "contract": "contracts/LuckyLotDraw.sol:LuckyLotDraw",
            "label": "adminRole",
            "offset": 0,
            "slot": "1",
            "type": "t_bytes32"
          }
        ],
        "numberOfBytes": "64"
      },
      "t_struct(Round)12218_storage": {
        "encoding": "inplace",
        "label": "struct LuckyLotDraw.Round",
        "members": [
          {
            "astId": 12204,
            "contract": "contracts/LuckyLotDraw.sol:LuckyLotDraw",
            "label": "id",
            "offset": 0,
            "slot": "0",
            "type": "t_uint256"
          },
          {
            "astId": 12208,
            "contract": "contracts/LuckyLotDraw.sol:LuckyLotDraw",
            "label": "participants",
            "offset": 0,
            "slot": "1",
            "type": "t_mapping(t_uint256,t_address)"
          },
          {
            "astId": 12211,
            "contract": "contracts/LuckyLotDraw.sol:LuckyLotDraw",
            "label": "numbers",
            "offset": 0,
            "slot": "2",
            "type": "t_array(t_uint32)dyn_storage"
          },
          {
            "astId": 12213,
            "contract": "contracts/LuckyLotDraw.sol:LuckyLotDraw",
            "label": "isClosed",
            "offset": 0,
            "slot": "3",
            "type": "t_bool"
          },
          {
            "astId": 12215,
            "contract": "contracts/LuckyLotDraw.sol:LuckyLotDraw",
            "label": "winningNumber",
            "offset": 1,
            "slot": "3",
            "type": "t_uint32"
          },
          {
            "astId": 12217,
            "contract": "contracts/LuckyLotDraw.sol:LuckyLotDraw",
            "label": "hasWinner",
            "offset": 5,
            "slot": "3",
            "type": "t_bool"
          }
        ],
        "numberOfBytes": "128"
      },
      "t_uint256": {
        "encoding": "inplace",
        "label": "uint256",
        "numberOfBytes": "32"
      },
      "t_uint32": {
        "encoding": "inplace",
        "label": "uint32",
        "numberOfBytes": "4"
      }
    }
  }
}